{
  "_format": "hh-sol-artifact-1",
  "contractName": "CrowdFunding",
  "sourceName": "contracts/CrowdFunding.sol",
  "abi": [
    {
      "inputs": [
        {
          "internalType": "uint256",
          "name": "",
          "type": "uint256"
        }
      ],
      "name": "campaigns",
      "outputs": [
        {
          "internalType": "address",
          "name": "owner",
          "type": "address"
        },
        {
          "internalType": "string",
          "name": "title",
          "type": "string"
        },
        {
          "internalType": "string",
          "name": "description",
          "type": "string"
        },
        {
          "internalType": "uint256",
          "name": "target",
          "type": "uint256"
        },
        {
          "internalType": "uint256",
          "name": "deadline",
          "type": "uint256"
        },
        {
          "internalType": "uint256",
          "name": "amountCollected",
          "type": "uint256"
        }
      ],
      "stateMutability": "view",
      "type": "function"
    },
    {
      "inputs": [
        {
          "internalType": "address",
          "name": "_owner",
          "type": "address"
        },
        {
          "internalType": "string",
          "name": "_title",
          "type": "string"
        },
        {
          "internalType": "string",
          "name": "_description",
          "type": "string"
        },
        {
          "internalType": "uint256",
          "name": "_target",
          "type": "uint256"
        },
        {
          "internalType": "uint256",
          "name": "_deadline",
          "type": "uint256"
        }
      ],
      "name": "createCampaign",
      "outputs": [
        {
          "internalType": "uint256",
          "name": "",
          "type": "uint256"
        }
      ],
      "stateMutability": "nonpayable",
      "type": "function"
    },
    {
      "inputs": [
        {
          "internalType": "uint256",
          "name": "_id",
          "type": "uint256"
        }
      ],
      "name": "donateToCampaign",
      "outputs": [],
      "stateMutability": "payable",
      "type": "function"
    },
    {
      "inputs": [],
      "name": "getCampaign",
      "outputs": [
        {
          "components": [
            {
              "internalType": "address",
              "name": "owner",
              "type": "address"
            },
            {
              "internalType": "string",
              "name": "title",
              "type": "string"
            },
            {
              "internalType": "string",
              "name": "description",
              "type": "string"
            },
            {
              "internalType": "uint256",
              "name": "target",
              "type": "uint256"
            },
            {
              "internalType": "uint256",
              "name": "deadline",
              "type": "uint256"
            },
            {
              "internalType": "uint256",
              "name": "amountCollected",
              "type": "uint256"
            },
            {
              "internalType": "address[]",
              "name": "donators",
              "type": "address[]"
            },
            {
              "internalType": "uint256[]",
              "name": "donations",
              "type": "uint256[]"
            }
          ],
          "internalType": "struct CrowdFunding.Campaign[]",
          "name": "",
          "type": "tuple[]"
        }
      ],
      "stateMutability": "view",
      "type": "function"
    },
    {
      "inputs": [
        {
          "internalType": "uint256",
          "name": "_id",
          "type": "uint256"
        }
      ],
      "name": "getDonators",
      "outputs": [
        {
          "internalType": "address[]",
          "name": "",
          "type": "address[]"
        },
        {
          "internalType": "uint256[]",
          "name": "",
          "type": "uint256[]"
        }
      ],
      "stateMutability": "view",
      "type": "function"
    },
    {
      "inputs": [],
      "name": "numberOfCampaigns",
      "outputs": [
        {
          "internalType": "uint256",
          "name": "",
          "type": "uint256"
        }
      ],
      "stateMutability": "view",
      "type": "function"
    }
  ],
  "bytecode": "0x6080604052600060015534801561001557600080fd5b50611790806100256000396000f3fe6080604052600436106100555760003560e01c8063075843c31461005a57806307ca140d146100975780630fa91fa9146100c2578063141961bc14610100578063236b8e3a1461014257806342a4fda81461016d575b600080fd5b34801561006657600080fd5b50610081600480360381019061007c9190610c0b565b610189565b60405161008e9190610ccd565b60405180910390f35b3480156100a357600080fd5b506100ac610299565b6040516100b99190610ccd565b60405180910390f35b3480156100ce57600080fd5b506100e960048036038101906100e49190610ce8565b61029f565b6040516100f7929190610e91565b60405180910390f35b34801561010c57600080fd5b5061012760048036038101906101229190610ce8565b6103af565b60405161013996959493929190610f56565b60405180910390f35b34801561014e57600080fd5b5061015761051b565b6040516101649190611274565b60405180910390f35b61018760048036038101906101829190610ce8565b61085f565b005b600080600080600154815260200190815260200160002090504283116101e4576040517f08c379a00000000000000000000000000000000000000000000000000000000081526004016101db90611308565b60405180910390fd5b868160000160006101000a81548173ffffffffffffffffffffffffffffffffffffffff021916908373ffffffffffffffffffffffffffffffffffffffff160217905550858160010190816102389190611534565b508481600201908161024a9190611534565b50838160030181905550828160040181905550600081600501819055506001600081548092919061027a90611635565b91905055506001805461028d919061167d565b91505095945050505050565b60015481565b6060806000808481526020019081526020016000206006016000808581526020019081526020016000206007018180548060200260200160405190810160405280929190818152602001828054801561034d57602002820191906000526020600020905b8160009054906101000a900473ffffffffffffffffffffffffffffffffffffffff1673ffffffffffffffffffffffffffffffffffffffff1681526020019060010190808311610303575b505050505091508080548060200260200160405190810160405280929190818152602001828054801561039f57602002820191906000526020600020905b81548152602001906001019080831161038b575b5050505050905091509150915091565b60006020528060005260406000206000915090508060000160009054906101000a900473ffffffffffffffffffffffffffffffffffffffff16908060010180546103f890611357565b80601f016020809104026020016040519081016040528092919081815260200182805461042490611357565b80156104715780601f1061044657610100808354040283529160200191610471565b820191906000526020600020905b81548152906001019060200180831161045457829003601f168201915b50505050509080600201805461048690611357565b80601f01602080910402602001604051908101604052809291908181526020018280546104b290611357565b80156104ff5780601f106104d4576101008083540402835291602001916104ff565b820191906000526020600020905b8154815290600101906020018083116104e257829003601f168201915b5050505050908060030154908060040154908060050154905086565b6060600060015467ffffffffffffffff81111561053b5761053a610aaa565b5b60405190808252806020026020018201604052801561057457816020015b6105616109c2565b8152602001906001900390816105595790505b50905060005b600154811015610857576000806000838152602001908152602001600020905080604051806101000160405290816000820160009054906101000a900473ffffffffffffffffffffffffffffffffffffffff1673ffffffffffffffffffffffffffffffffffffffff1673ffffffffffffffffffffffffffffffffffffffff16815260200160018201805461060d90611357565b80601f016020809104026020016040519081016040528092919081815260200182805461063990611357565b80156106865780601f1061065b57610100808354040283529160200191610686565b820191906000526020600020905b81548152906001019060200180831161066957829003601f168201915b5050505050815260200160028201805461069f90611357565b80601f01602080910402602001604051908101604052809291908181526020018280546106cb90611357565b80156107185780601f106106ed57610100808354040283529160200191610718565b820191906000526020600020905b8154815290600101906020018083116106fb57829003601f168201915b50505050508152602001600382015481526020016004820154815260200160058201548152602001600682018054806020026020016040519081016040528092919081815260200182805480156107c457602002820191906000526020600020905b8160009054906101000a900473ffffffffffffffffffffffffffffffffffffffff1673ffffffffffffffffffffffffffffffffffffffff168152602001906001019080831161077a575b505050505081526020016007820180548060200260200160405190810160405280929190818152602001828054801561081c57602002820191906000526020600020905b815481526020019060010190808311610808575b505050505081525050838381518110610838576108376116b1565b5b602002602001018190525050808061084f90611635565b91505061057a565b508091505090565b60003490506000806000848152602001908152602001600020905080600601339080600181540180825580915050600190039060005260206000200160009091909190916101000a81548173ffffffffffffffffffffffffffffffffffffffff021916908373ffffffffffffffffffffffffffffffffffffffff1602179055508060070182908060018154018082558091505060019003906000526020600020016000909190919091505560008160000160009054906101000a900473ffffffffffffffffffffffffffffffffffffffff1673ffffffffffffffffffffffffffffffffffffffff168360405161095490611711565b60006040518083038185875af1925050503d8060008114610991576040519150601f19603f3d011682016040523d82523d6000602084013e610996565b606091505b5050905080156109bc57828260050160008282546109b49190611726565b925050819055505b50505050565b604051806101000160405280600073ffffffffffffffffffffffffffffffffffffffff168152602001606081526020016060815260200160008152602001600081526020016000815260200160608152602001606081525090565b6000604051905090565b600080fd5b600080fd5b600073ffffffffffffffffffffffffffffffffffffffff82169050919050565b6000610a5c82610a31565b9050919050565b610a6c81610a51565b8114610a7757600080fd5b50565b600081359050610a8981610a63565b92915050565b600080fd5b600080fd5b6000601f19601f8301169050919050565b7f4e487b7100000000000000000000000000000000000000000000000000000000600052604160045260246000fd5b610ae282610a99565b810181811067ffffffffffffffff82111715610b0157610b00610aaa565b5b80604052505050565b6000610b14610a1d565b9050610b208282610ad9565b919050565b600067ffffffffffffffff821115610b4057610b3f610aaa565b5b610b4982610a99565b9050602081019050919050565b82818337600083830152505050565b6000610b78610b7384610b25565b610b0a565b905082815260208101848484011115610b9457610b93610a94565b5b610b9f848285610b56565b509392505050565b600082601f830112610bbc57610bbb610a8f565b5b8135610bcc848260208601610b65565b91505092915050565b6000819050919050565b610be881610bd5565b8114610bf357600080fd5b50565b600081359050610c0581610bdf565b92915050565b600080600080600060a08688031215610c2757610c26610a27565b5b6000610c3588828901610a7a565b955050602086013567ffffffffffffffff811115610c5657610c55610a2c565b5b610c6288828901610ba7565b945050604086013567ffffffffffffffff811115610c8357610c82610a2c565b5b610c8f88828901610ba7565b9350506060610ca088828901610bf6565b9250506080610cb188828901610bf6565b9150509295509295909350565b610cc781610bd5565b82525050565b6000602082019050610ce26000830184610cbe565b92915050565b600060208284031215610cfe57610cfd610a27565b5b6000610d0c84828501610bf6565b91505092915050565b600081519050919050565b600082825260208201905092915050565b6000819050602082019050919050565b610d4a81610a51565b82525050565b6000610d5c8383610d41565b60208301905092915050565b6000602082019050919050565b6000610d8082610d15565b610d8a8185610d20565b9350610d9583610d31565b8060005b83811015610dc6578151610dad8882610d50565b9750610db883610d68565b925050600181019050610d99565b5085935050505092915050565b600081519050919050565b600082825260208201905092915050565b6000819050602082019050919050565b610e0881610bd5565b82525050565b6000610e1a8383610dff565b60208301905092915050565b6000602082019050919050565b6000610e3e82610dd3565b610e488185610dde565b9350610e5383610def565b8060005b83811015610e84578151610e6b8882610e0e565b9750610e7683610e26565b925050600181019050610e57565b5085935050505092915050565b60006040820190508181036000830152610eab8185610d75565b90508181036020830152610ebf8184610e33565b90509392505050565b610ed181610a51565b82525050565b600081519050919050565b600082825260208201905092915050565b60005b83811015610f11578082015181840152602081019050610ef6565b60008484015250505050565b6000610f2882610ed7565b610f328185610ee2565b9350610f42818560208601610ef3565b610f4b81610a99565b840191505092915050565b600060c082019050610f6b6000830189610ec8565b8181036020830152610f7d8188610f1d565b90508181036040830152610f918187610f1d565b9050610fa06060830186610cbe565b610fad6080830185610cbe565b610fba60a0830184610cbe565b979650505050505050565b600081519050919050565b600082825260208201905092915050565b6000819050602082019050919050565b600082825260208201905092915050565b600061100d82610ed7565b6110178185610ff1565b9350611027818560208601610ef3565b61103081610a99565b840191505092915050565b600082825260208201905092915050565b600061105782610d15565b611061818561103b565b935061106c83610d31565b8060005b8381101561109d5781516110848882610d50565b975061108f83610d68565b925050600181019050611070565b5085935050505092915050565b600082825260208201905092915050565b60006110c682610dd3565b6110d081856110aa565b93506110db83610def565b8060005b8381101561110c5781516110f38882610e0e565b97506110fe83610e26565b9250506001810190506110df565b5085935050505092915050565b6000610100830160008301516111326000860182610d41565b506020830151848203602086015261114a8282611002565b915050604083015184820360408601526111648282611002565b91505060608301516111796060860182610dff565b50608083015161118c6080860182610dff565b5060a083015161119f60a0860182610dff565b5060c083015184820360c08601526111b7828261104c565b91505060e083015184820360e08601526111d182826110bb565b9150508091505092915050565b60006111ea8383611119565b905092915050565b6000602082019050919050565b600061120a82610fc5565b6112148185610fd0565b93508360208202850161122685610fe1565b8060005b85811015611262578484038952815161124385826111de565b945061124e836111f2565b925060208a0199505060018101905061122a565b50829750879550505050505092915050565b6000602082019050818103600083015261128e81846111ff565b905092915050565b7f54686520646561646c696e652073686f756c642062652061206461746520696e60008201527f2074686520667574757265000000000000000000000000000000000000000000602082015250565b60006112f2602b83610ee2565b91506112fd82611296565b604082019050919050565b60006020820190508181036000830152611321816112e5565b9050919050565b7f4e487b7100000000000000000000000000000000000000000000000000000000600052602260045260246000fd5b6000600282049050600182168061136f57607f821691505b60208210810361138257611381611328565b5b50919050565b60008190508160005260206000209050919050565b60006020601f8301049050919050565b600082821b905092915050565b6000600883026113ea7fffffffffffffffffffffffffffffffffffffffffffffffffffffffffffffffff826113ad565b6113f486836113ad565b95508019841693508086168417925050509392505050565b6000819050919050565b600061143161142c61142784610bd5565b61140c565b610bd5565b9050919050565b6000819050919050565b61144b83611416565b61145f61145782611438565b8484546113ba565b825550505050565b600090565b611474611467565b61147f818484611442565b505050565b5b818110156114a35761149860008261146c565b600181019050611485565b5050565b601f8211156114e8576114b981611388565b6114c28461139d565b810160208510156114d1578190505b6114e56114dd8561139d565b830182611484565b50505b505050565b600082821c905092915050565b600061150b600019846008026114ed565b1980831691505092915050565b600061152483836114fa565b9150826002028217905092915050565b61153d82610ed7565b67ffffffffffffffff81111561155657611555610aaa565b5b6115608254611357565b61156b8282856114a7565b600060209050601f83116001811461159e576000841561158c578287015190505b6115968582611518565b8655506115fe565b601f1984166115ac86611388565b60005b828110156115d4578489015182556001820191506020850194506020810190506115af565b868310156115f157848901516115ed601f8916826114fa565b8355505b6001600288020188555050505b505050505050565b7f4e487b7100000000000000000000000000000000000000000000000000000000600052601160045260246000fd5b600061164082610bd5565b91507fffffffffffffffffffffffffffffffffffffffffffffffffffffffffffffffff820361167257611671611606565b5b600182019050919050565b600061168882610bd5565b915061169383610bd5565b92508282039050818111156116ab576116aa611606565b5b92915050565b7f4e487b7100000000000000000000000000000000000000000000000000000000600052603260045260246000fd5b600081905092915050565b50565b60006116fb6000836116e0565b9150611706826116eb565b600082019050919050565b600061171c826116ee565b9150819050919050565b600061173182610bd5565b915061173c83610bd5565b925082820190508082111561175457611753611606565b5b9291505056fea2646970667358221220f039b14f31c4069eb45fa2eeccd35bef8b0c8c93d4a9e7f1a3dae57929d6ba6564736f6c63430008120033",
  "linkReferences": {},
  "deployedLinkReferences": {}
}